{
  "contractName": "Bet",
  "abi": [
    {
      "inputs": [
        {
          "internalType": "address payable",
          "name": "player1",
          "type": "address"
        },
        {
          "internalType": "address payable",
          "name": "player2",
          "type": "address"
        },
        {
          "internalType": "address",
          "name": "_referee",
          "type": "address"
        },
        {
          "internalType": "uint256",
          "name": "_prize",
          "type": "uint256"
        },
        {
          "internalType": "address",
          "name": "betfactoryaddr",
          "type": "address"
        }
      ],
      "payable": true,
      "stateMutability": "payable",
      "type": "constructor"
    },
    {
      "constant": true,
      "inputs": [
        {
          "internalType": "uint256",
          "name": "",
          "type": "uint256"
        }
      ],
      "name": "allReferees",
      "outputs": [
        {
          "internalType": "address",
          "name": "",
          "type": "address"
        }
      ],
      "payable": false,
      "stateMutability": "view",
      "type": "function"
    },
    {
      "constant": true,
      "inputs": [
        {
          "internalType": "uint256",
          "name": "",
          "type": "uint256"
        }
      ],
      "name": "invited",
      "outputs": [
        {
          "internalType": "address payable",
          "name": "",
          "type": "address"
        }
      ],
      "payable": false,
      "stateMutability": "view",
      "type": "function"
    },
    {
      "constant": true,
      "inputs": [],
      "name": "name",
      "outputs": [
        {
          "internalType": "string",
          "name": "",
          "type": "string"
        }
      ],
      "payable": false,
      "stateMutability": "view",
      "type": "function"
    },
    {
      "constant": true,
      "inputs": [],
      "name": "prize",
      "outputs": [
        {
          "internalType": "uint256",
          "name": "",
          "type": "uint256"
        }
      ],
      "payable": false,
      "stateMutability": "view",
      "type": "function"
    },
    {
      "constant": false,
      "inputs": [],
      "name": "enter",
      "outputs": [],
      "payable": true,
      "stateMutability": "payable",
      "type": "function"
    },
    {
      "constant": false,
      "inputs": [
        {
          "internalType": "address payable",
          "name": "newPlayer",
          "type": "address"
        }
      ],
      "name": "addPlayer",
      "outputs": [],
      "payable": false,
      "stateMutability": "nonpayable",
      "type": "function"
    },
    {
      "constant": false,
      "inputs": [
        {
          "internalType": "address payable",
          "name": "player",
          "type": "address"
        }
      ],
      "name": "pickWinner",
      "outputs": [],
      "payable": false,
      "stateMutability": "nonpayable",
      "type": "function"
    },
    {
      "constant": false,
      "inputs": [
        {
          "internalType": "address",
          "name": "_referee",
          "type": "address"
        }
      ],
      "name": "suggestReferee",
      "outputs": [],
      "payable": false,
      "stateMutability": "nonpayable",
      "type": "function"
    },
    {
      "constant": false,
      "inputs": [
        {
          "internalType": "address",
          "name": "_referee",
          "type": "address"
        }
      ],
      "name": "confirmReferee",
      "outputs": [],
      "payable": false,
      "stateMutability": "nonpayable",
      "type": "function"
    },
    {
      "constant": true,
      "inputs": [],
      "name": "getPrize",
      "outputs": [
        {
          "internalType": "uint256",
          "name": "",
          "type": "uint256"
        }
      ],
      "payable": false,
      "stateMutability": "view",
      "type": "function"
    },
    {
      "constant": true,
      "inputs": [],
      "name": "getInvited",
      "outputs": [
        {
          "internalType": "address payable[]",
          "name": "",
          "type": "address[]"
        }
      ],
      "payable": false,
      "stateMutability": "view",
      "type": "function"
    },
    {
      "constant": true,
      "inputs": [],
      "name": "getReferees",
      "outputs": [
        {
          "internalType": "address[]",
          "name": "",
          "type": "address[]"
        }
      ],
      "payable": false,
      "stateMutability": "view",
      "type": "function"
    },
    {
      "constant": true,
      "inputs": [
        {
          "internalType": "address",
          "name": "_referee",
          "type": "address"
        }
      ],
      "name": "isRefereeConfirmed",
      "outputs": [
        {
          "internalType": "bool",
          "name": "",
          "type": "bool"
        }
      ],
      "payable": false,
      "stateMutability": "view",
      "type": "function"
    },
    {
      "constant": true,
      "inputs": [
        {
          "internalType": "address",
          "name": "player",
          "type": "address"
        }
      ],
      "name": "hasPlayerEntered",
      "outputs": [
        {
          "internalType": "bool",
          "name": "",
          "type": "bool"
        }
      ],
      "payable": false,
      "stateMutability": "view",
      "type": "function"
    }
  ],
  "bytecode": "0x60806040526040518060400160405280600381526020017f4265740000000000000000000000000000000000000000000000000000000000815250600090805190602001906200005192919062000582565b506040516200217b3803806200217b833981810160405260a08110156200007757600080fd5b8101908080519060200190929190805190602001909291908051906020019092919080519060200190929190805190602001909291905050508273ffffffffffffffffffffffffffffffffffffffff168573ffffffffffffffffffffffffffffffffffffffff16141580156200011957508273ffffffffffffffffffffffffffffffffffffffff168473ffffffffffffffffffffffffffffffffffffffff1614155b6200018c576040517f08c379a000000000000000000000000000000000000000000000000000000000815260040180806020018281038252600f8152602001807f496e76616c69642072656665726565000000000000000000000000000000000081525060200191505060405180910390fd5b818573ffffffffffffffffffffffffffffffffffffffff16311162000219576040517f08c379a000000000000000000000000000000000000000000000000000000000815260040180806020018281038252601d8152602001807f596f7520646f206e6f74206861766520656e6f7567682066756e64732100000081525060200191505060405180910390fd5b818473ffffffffffffffffffffffffffffffffffffffff1631116200028a576040517f08c379a0000000000000000000000000000000000000000000000000000000008152600401808060200182810382526024815260200180620021576024913960400191505060405180910390fd5b6200029b836200047560201b60201c565b8160058190555060038590806001815401808255809150509060018203906000526020600020016000909192909190916101000a81548173ffffffffffffffffffffffffffffffffffffffff021916908373ffffffffffffffffffffffffffffffffffffffff1602179055505060038490806001815401808255809150509060018203906000526020600020016000909192909190916101000a81548173ffffffffffffffffffffffffffffffffffffffff021916908373ffffffffffffffffffffffffffffffffffffffff1602179055505080600660006101000a81548173ffffffffffffffffffffffffffffffffffffffff021916908373ffffffffffffffffffffffffffffffffffffffff160217905550600660009054906101000a900473ffffffffffffffffffffffffffffffffffffffff1673ffffffffffffffffffffffffffffffffffffffff1663b51f59de856040518263ffffffff1660e01b8152600401808273ffffffffffffffffffffffffffffffffffffffff1673ffffffffffffffffffffffffffffffffffffffff168152602001915050600060405180830381600087803b1580156200045157600080fd5b505af115801562000466573d6000803e3d6000fd5b50505050505050505062000631565b6000600160008373ffffffffffffffffffffffffffffffffffffffff1673ffffffffffffffffffffffffffffffffffffffff1681526020019081526020016000209050338160000160006101000a81548173ffffffffffffffffffffffffffffffffffffffff021916908373ffffffffffffffffffffffffffffffffffffffff16021790555060008160000160146101000a81548160ff02191690831515021790555060028290806001815401808255809150509060018203906000526020600020016000909192909190916101000a81548173ffffffffffffffffffffffffffffffffffffffff021916908373ffffffffffffffffffffffffffffffffffffffff160217905550505050565b828054600181600116156101000203166002900490600052602060002090601f016020900481019282601f10620005c557805160ff1916838001178555620005f6565b82800160010185558215620005f6579182015b82811115620005f5578251825591602001919060010190620005d8565b5b50905062000605919062000609565b5090565b6200062e91905b808211156200062a57600081600090555060010162000610565b5090565b90565b611b1680620006416000396000f3fe6080604052600436106100dd5760003560e01c8063b1275f9a1161007f578063e0b3209711610059578063e0b320971461049a578063e3ac5d2614610506578063e97dcb6214610531578063ef7a74641461053b576100dd565b8063b1275f9a146103cd578063c34f6b0d1461041e578063c5a8b47014610449576100dd565b806336ed0996116100bb57806336ed09961461023e57806339bc8f2d1461028f578063680719bb146102f8578063aee636bc14610361576100dd565b806306fdde03146100e2578063141d49ce14610172578063354267b6146101c3575b600080fd5b3480156100ee57600080fd5b506100f76105b6565b6040518080602001828103825283818151815260200191508051906020019080838360005b8381101561013757808201518184015260208101905061011c565b50505050905090810190601f1680156101645780820380516001836020036101000a031916815260200191505b509250505060405180910390f35b34801561017e57600080fd5b506101c16004803603602081101561019557600080fd5b81019080803573ffffffffffffffffffffffffffffffffffffffff169060200190929190505050610654565b005b3480156101cf57600080fd5b506101fc600480360360208110156101e657600080fd5b8101908080359060200190929190505050610985565b604051808273ffffffffffffffffffffffffffffffffffffffff1673ffffffffffffffffffffffffffffffffffffffff16815260200191505060405180910390f35b34801561024a57600080fd5b5061028d6004803603602081101561026157600080fd5b81019080803573ffffffffffffffffffffffffffffffffffffffff1690602001909291905050506109c1565b005b34801561029b57600080fd5b506102de600480360360208110156102b257600080fd5b81019080803573ffffffffffffffffffffffffffffffffffffffff169060200190929190505050610de2565b604051808215151515815260200191505060405180910390f35b34801561030457600080fd5b506103476004803603602081101561031b57600080fd5b81019080803573ffffffffffffffffffffffffffffffffffffffff169060200190929190505050610e3b565b604051808215151515815260200191505060405180910390f35b34801561036d57600080fd5b50610376610e91565b6040518080602001828103825283818151815260200191508051906020019060200280838360005b838110156103b957808201518184015260208101905061039e565b505050509050019250505060405180910390f35b3480156103d957600080fd5b5061041c600480360360208110156103f057600080fd5b81019080803573ffffffffffffffffffffffffffffffffffffffff169060200190929190505050610f1f565b005b34801561042a57600080fd5b50610433611170565b6040518082815260200191505060405180910390f35b34801561045557600080fd5b506104986004803603602081101561046c57600080fd5b81019080803573ffffffffffffffffffffffffffffffffffffffff16906020019092919050505061118f565b005b3480156104a657600080fd5b506104af6116f9565b6040518080602001828103825283818151815260200191508051906020019060200280838360005b838110156104f25780820151818401526020810190506104d7565b505050509050019250505060405180910390f35b34801561051257600080fd5b5061051b611787565b6040518082815260200191505060405180910390f35b61053961178d565b005b34801561054757600080fd5b506105746004803603602081101561055e57600080fd5b810190808035906020019092919050505061191e565b604051808273ffffffffffffffffffffffffffffffffffffffff1673ffffffffffffffffffffffffffffffffffffffff16815260200191505060405180910390f35b60008054600181600116156101000203166002900480601f01602080910402602001604051908101604052809291908181526020018280546001816001161561010002031660029004801561064c5780601f106106215761010080835404028352916020019161064c565b820191906000526020600020905b81548152906001019060200180831161062f57829003601f168201915b505050505081565b600460003373ffffffffffffffffffffffffffffffffffffffff1673ffffffffffffffffffffffffffffffffffffffff16815260200190815260200160002060009054906101000a900460ff16610713576040517f08c379a00000000000000000000000000000000000000000000000000000000081526004018080602001828103825260208152602001807f596f75206d757374206265206120706c6179657220746f20646f20746869732181525060200191505060405180910390fd5b600460008273ffffffffffffffffffffffffffffffffffffffff1673ffffffffffffffffffffffffffffffffffffffff16815260200190815260200160002060009054906101000a900460ff16156107d3576040517f08c379a00000000000000000000000000000000000000000000000000000000081526004018080602001828103825260198152602001807f506c617965722063616e206e6f7420626520726566657265650000000000000081525060200191505060405180910390fd5b8073ffffffffffffffffffffffffffffffffffffffff163373ffffffffffffffffffffffffffffffffffffffff161415610875576040517f08c379a00000000000000000000000000000000000000000000000000000000081526004018080602001828103825260148152602001807f43616e6e6f7420737567676573742073656c662e00000000000000000000000081525060200191505060405180910390fd5b600073ffffffffffffffffffffffffffffffffffffffff16600160008373ffffffffffffffffffffffffffffffffffffffff1673ffffffffffffffffffffffffffffffffffffffff16815260200190815260200160002060000160009054906101000a900473ffffffffffffffffffffffffffffffffffffffff1673ffffffffffffffffffffffffffffffffffffffff1614610979576040517f08c379a00000000000000000000000000000000000000000000000000000000081526004018080602001828103825260178152602001807f5265666572656520616c7265616479206578697374732e00000000000000000081525060200191505060405180910390fd5b6109828161195a565b50565b6003818154811061099257fe5b906000526020600020016000915054906101000a900473ffffffffffffffffffffffffffffffffffffffff1681565b600460003373ffffffffffffffffffffffffffffffffffffffff1673ffffffffffffffffffffffffffffffffffffffff16815260200190815260200160002060009054906101000a900460ff16610a80576040517f08c379a00000000000000000000000000000000000000000000000000000000081526004018080602001828103825260208152602001807f596f75206d757374206265206120706c6179657220746f20646f20746869732181525060200191505060405180910390fd5b8073ffffffffffffffffffffffffffffffffffffffff163373ffffffffffffffffffffffffffffffffffffffff161415610b22576040517f08c379a00000000000000000000000000000000000000000000000000000000081526004018080602001828103825260148152602001807f43616e6e6f7420636f6e6669726d2073656c662e00000000000000000000000081525060200191505060405180910390fd5b600160008273ffffffffffffffffffffffffffffffffffffffff1673ffffffffffffffffffffffffffffffffffffffff16815260200190815260200160002060000160149054906101000a900460ff1615610be5576040517f08c379a000000000000000000000000000000000000000000000000000000000815260040180806020018281038252601a8152602001807f5265666572656520616c726561647920636f6e6669726d65642e00000000000081525060200191505060405180910390fd5b3373ffffffffffffffffffffffffffffffffffffffff16600160008373ffffffffffffffffffffffffffffffffffffffff1673ffffffffffffffffffffffffffffffffffffffff16815260200190815260200160002060000160009054906101000a900473ffffffffffffffffffffffffffffffffffffffff1673ffffffffffffffffffffffffffffffffffffffff161415610ccc576040517f08c379a0000000000000000000000000000000000000000000000000000000008152600401808060200182810382526029815260200180611ab96029913960400191505060405180910390fd5b60018060008373ffffffffffffffffffffffffffffffffffffffff1673ffffffffffffffffffffffffffffffffffffffff16815260200190815260200160002060000160146101000a81548160ff021916908315150217905550600660009054906101000a900473ffffffffffffffffffffffffffffffffffffffff1673ffffffffffffffffffffffffffffffffffffffff1663b51f59de826040518263ffffffff1660e01b8152600401808273ffffffffffffffffffffffffffffffffffffffff1673ffffffffffffffffffffffffffffffffffffffff168152602001915050600060405180830381600087803b158015610dc757600080fd5b505af1158015610ddb573d6000803e3d6000fd5b5050505050565b6000600160008373ffffffffffffffffffffffffffffffffffffffff1673ffffffffffffffffffffffffffffffffffffffff16815260200190815260200160002060000160149054906101000a900460ff169050919050565b6000600460008373ffffffffffffffffffffffffffffffffffffffff1673ffffffffffffffffffffffffffffffffffffffff16815260200190815260200160002060009054906101000a900460ff169050919050565b60606002805480602002602001604051908101604052809291908181526020018280548015610f1557602002820191906000526020600020905b8160009054906101000a900473ffffffffffffffffffffffffffffffffffffffff1673ffffffffffffffffffffffffffffffffffffffff1681526020019060010190808311610ecb575b5050505050905090565b600460003373ffffffffffffffffffffffffffffffffffffffff1673ffffffffffffffffffffffffffffffffffffffff16815260200190815260200160002060009054906101000a900460ff16610fde576040517f08c379a00000000000000000000000000000000000000000000000000000000081526004018080602001828103825260208152602001807f596f75206d757374206265206120706c6179657220746f20646f20746869732181525060200191505060405180910390fd5b6005548173ffffffffffffffffffffffffffffffffffffffff16311161100357600080fd5b600073ffffffffffffffffffffffffffffffffffffffff16600160008373ffffffffffffffffffffffffffffffffffffffff1673ffffffffffffffffffffffffffffffffffffffff16815260200190815260200160002060000160009054906101000a900473ffffffffffffffffffffffffffffffffffffffff1673ffffffffffffffffffffffffffffffffffffffff1614611107576040517f08c379a000000000000000000000000000000000000000000000000000000000815260040180806020018281038252601a8152602001807f526566657265652063616e206e6f7420626520706c617965722e00000000000081525060200191505060405180910390fd5b60038190806001815401808255809150509060018203906000526020600020016000909192909190916101000a81548173ffffffffffffffffffffffffffffffffffffffff021916908373ffffffffffffffffffffffffffffffffffffffff1602179055505050565b60003073ffffffffffffffffffffffffffffffffffffffff1631905090565b600160003373ffffffffffffffffffffffffffffffffffffffff1673ffffffffffffffffffffffffffffffffffffffff16815260200190815260200160002060000160149054906101000a900460ff16611251576040517f08c379a000000000000000000000000000000000000000000000000000000000815260040180806020018281038252601c8152602001807f4f6e6c7920666f7220636f6e6669726d6564207265666572656573210000000081525060200191505060405180910390fd5b600160008273ffffffffffffffffffffffffffffffffffffffff1673ffffffffffffffffffffffffffffffffffffffff16815260200190815260200160002060000160149054906101000a900460ff1615611314576040517f08c379a00000000000000000000000000000000000000000000000000000000081526004018080602001828103825260118152602001807f596f7520736e65616b7920736e65616b7900000000000000000000000000000081525060200191505060405180910390fd5b600460008273ffffffffffffffffffffffffffffffffffffffff1673ffffffffffffffffffffffffffffffffffffffff16815260200190815260200160002060009054906101000a900460ff166113d3576040517f08c379a00000000000000000000000000000000000000000000000000000000081526004018080602001828103825260168152602001807f506c6179657220686173206e6f7420656e74657265640000000000000000000081525060200191505060405180910390fd5b8073ffffffffffffffffffffffffffffffffffffffff166108fc3073ffffffffffffffffffffffffffffffffffffffff16319081150290604051600060405180830381858888f19350505050158015611430573d6000803e3d6000fd5b5060008090505b6003805490508110156114e0576000600460006003848154811061145757fe5b9060005260206000200160009054906101000a900473ffffffffffffffffffffffffffffffffffffffff1673ffffffffffffffffffffffffffffffffffffffff1673ffffffffffffffffffffffffffffffffffffffff16815260200190815260200160002060006101000a81548160ff0219169083151502179055508080600101915050611437565b5060008090505b6002805490508110156116f557600160006002838154811061150557fe5b9060005260206000200160009054906101000a900473ffffffffffffffffffffffffffffffffffffffff1673ffffffffffffffffffffffffffffffffffffffff1673ffffffffffffffffffffffffffffffffffffffff168152602001908152602001600020600080820160006101000a81549073ffffffffffffffffffffffffffffffffffffffff02191690556000820160146101000a81549060ff02191690555050600660009054906101000a900473ffffffffffffffffffffffffffffffffffffffff1673ffffffffffffffffffffffffffffffffffffffff166399177357600283815481106115f357fe5b9060005260206000200160009054906101000a900473ffffffffffffffffffffffffffffffffffffffff166040518263ffffffff1660e01b8152600401808273ffffffffffffffffffffffffffffffffffffffff1673ffffffffffffffffffffffffffffffffffffffff168152602001915050600060405180830381600087803b15801561168057600080fd5b505af1158015611694573d6000803e3d6000fd5b50505050600281815481106116a557fe5b9060005260206000200160006101000a81549073ffffffffffffffffffffffffffffffffffffffff021916905560028054809190600190036116e79190611a67565b5080806001019150506114e7565b5050565b6060600380548060200260200160405190810160405280929190818152602001828054801561177d57602002820191906000526020600020905b8160009054906101000a900473ffffffffffffffffffffffffffffffffffffffff1673ffffffffffffffffffffffffffffffffffffffff1681526020019060010190808311611733575b5050505050905090565b60055481565b6005543414611804576040517f08c379a000000000000000000000000000000000000000000000000000000000815260040180806020018281038252601d8152602001807f42657474696e6720616d6f756e74206d75737420626520657175616c2e00000081525060200191505060405180910390fd5b600460003373ffffffffffffffffffffffffffffffffffffffff1673ffffffffffffffffffffffffffffffffffffffff16815260200190815260200160002060009054906101000a900460ff16156118c4576040517f08c379a00000000000000000000000000000000000000000000000000000000081526004018080602001828103825260188152602001807f596f75206861766520616c726561647920656e7465726564000000000000000081525060200191505060405180910390fd5b6001600460003373ffffffffffffffffffffffffffffffffffffffff1673ffffffffffffffffffffffffffffffffffffffff16815260200190815260200160002060006101000a81548160ff021916908315150217905550565b6002818154811061192b57fe5b906000526020600020016000915054906101000a900473ffffffffffffffffffffffffffffffffffffffff1681565b6000600160008373ffffffffffffffffffffffffffffffffffffffff1673ffffffffffffffffffffffffffffffffffffffff1681526020019081526020016000209050338160000160006101000a81548173ffffffffffffffffffffffffffffffffffffffff021916908373ffffffffffffffffffffffffffffffffffffffff16021790555060008160000160146101000a81548160ff02191690831515021790555060028290806001815401808255809150509060018203906000526020600020016000909192909190916101000a81548173ffffffffffffffffffffffffffffffffffffffff021916908373ffffffffffffffffffffffffffffffffffffffff160217905550505050565b815481835581811115611a8e57818360005260206000209182019101611a8d9190611a93565b5b505050565b611ab591905b80821115611ab1576000816000905550600101611a99565b5090565b9056fe43616e6e6f7420636f6e6669726d2072656665726565207375676765737465642062792073656c662ea265627a7a723158205bbd99beb993874f3e6cbcb28a8de172119abe5b874fe6632a1401f77d6b0c2464736f6c634300051000324f70706f6e656e7420646f6573206e6f74206861766520656e6f7567682066756e647321",
  "source": "pragma solidity ^0.5.0;\r\n\r\ncontract BetFactory {\r\n    string public name = \"BetFactory\";\r\n    mapping (address => address[]) public deployedBets;\r\n    \r\n    function createBet(address payable player2, address referee, uint256 prize) public {\r\n        Bet newBet = new Bet(msg.sender, player2, referee, prize, address(this));\r\n        deployedBets[msg.sender].push(address(newBet));\r\n    }\r\n    \r\n    function myBets() public view returns (address[] memory) {\r\n        return deployedBets[msg.sender];\r\n    }\r\n    \r\n    function pushBet(address player) public {\r\n        deployedBets[player].push(msg.sender);\r\n    }\r\n\r\n    function deleteBet(address referee) public {\r\n        if (deployedBets[referee].length > 1){\r\n            uint lastBet = deployedBets[referee].length-1;\r\n            for (uint i=0; i < lastBet; i++) {\r\n                if (deployedBets[referee][i] == msg.sender) {\r\n                    deployedBets[referee][i] = deployedBets[referee][lastBet];\r\n                    deployedBets[referee].length--;\r\n                    break;\r\n                }\r\n            }\r\n        }else {\r\n            delete deployedBets[referee][0];\r\n            deployedBets[referee].length--;\r\n        }\r\n    }\r\n    \r\n}\r\n\r\ncontract Bet {\r\n    string public name = \"Bet\";\r\n    \r\n    struct Referee {\r\n        address suggestedBy;\r\n        bool confirmed;\r\n    }\r\n    \r\n    mapping (address => Referee) referees;\r\n    address[] public allReferees;\r\n    address payable[] public invited;\r\n    mapping (address => bool) hasEntered;\r\n    uint256 public prize;\r\n    BetFactory betfactory;\r\n    \r\n    function newReff(address referee) private {\r\n        Referee storage newReferee = referees[referee];\r\n        newReferee.suggestedBy = msg.sender;\r\n        newReferee.confirmed = false;\r\n        allReferees.push(referee);\r\n    }\r\n\r\n    constructor(address payable player1, address payable player2, address _referee, uint256 _prize, address betfactoryaddr) payable public {\r\n        require(player1 != _referee && player2 != _referee, \"Invalid referee\");\r\n        require(player1.balance > _prize, \"You do not have enough funds!\");\r\n        require(player2.balance > _prize, \"Opponent does not have enough funds!\");\r\n        newReff(_referee);\r\n        prize = _prize;\r\n        invited.push(player1);\r\n        invited.push(player2);\r\n        betfactory = BetFactory(betfactoryaddr);\r\n        betfactory.pushBet(player2);\r\n    }\r\n\r\n    function enter() public payable {\r\n        require(msg.value == prize, \"Betting amount must be equal.\");\r\n        require(!hasEntered[msg.sender], \"You have already entered\");\r\n        hasEntered[msg.sender] = true;\r\n    }\r\n    \r\n    function addPlayer(address payable newPlayer) public onlyPlayer {\r\n        require(newPlayer.balance > prize);\r\n        require(address(referees[newPlayer].suggestedBy) == address(0), \"Referee can not be player.\");\r\n        invited.push(newPlayer);\r\n    }\r\n\r\n    modifier onlyReferee() {\r\n        require(referees[msg.sender].confirmed, \"Only for confirmed referees!\");\r\n        _;\r\n    }\r\n    \r\n    modifier onlyPlayer() {\r\n        require(hasEntered[msg.sender], \"You must be a player to do this!\");\r\n        _;\r\n    }\r\n\r\n    function pickWinner(address payable player) public onlyReferee {\r\n        require(!referees[player].confirmed, \"You sneaky sneaky\");\r\n        require(hasEntered[player], \"Player has not entered\");\r\n        player.transfer(address(this).balance);\r\n        for (uint i=0; i < invited.length; i++) {\r\n            hasEntered[invited[i]] = false;\r\n        }\r\n        for (uint i=0; i < allReferees.length; i++) {\r\n            delete referees[allReferees[i]];\r\n            betfactory.deleteBet(allReferees[i]);\r\n            delete allReferees[i];\r\n            allReferees.length--;\r\n        }\r\n    }\r\n    \r\n    function suggestReferee(address _referee) public onlyPlayer {\r\n        require(!hasEntered[_referee], \"Player can not be referee\");\r\n        require(msg.sender != _referee, \"Cannot suggest self.\");\r\n        require(referees[_referee].suggestedBy == address(0), \"Referee already exists.\");\r\n        newReff(_referee);\r\n    }\r\n    \r\n    function confirmReferee(address _referee) public onlyPlayer {\r\n        require(msg.sender != _referee, \"Cannot confirm self.\");\r\n        require(!referees[_referee].confirmed, \"Referee already confirmed.\");\r\n        require(referees[_referee].suggestedBy != msg.sender, \"Cannot confirm referee suggested by self.\");\r\n        referees[_referee].confirmed = true;\r\n        betfactory.pushBet(_referee);\r\n    }\r\n    \r\n    function getPrize() public view returns (uint256) {\r\n        return address(this).balance;\r\n    }\r\n    \r\n    function getInvited() public view returns (address payable[] memory) {\r\n        return invited;\r\n    }\r\n    \r\n    function getReferees() public view returns (address[] memory) {\r\n        return allReferees;\r\n    }\r\n    \r\n    function isRefereeConfirmed(address _referee) public view returns (bool) {\r\n        return referees[_referee].confirmed;\r\n    }\r\n    \r\n    function hasPlayerEntered(address player) public view returns (bool) {\r\n        return hasEntered[player];\r\n    }\r\n}",
  "sourcePath": "C:/Users/klemen-ASUS/Desktop/sandbox/Solidity/my/friends-bet/src/contracts/Bet.sol",
  "compiler": {
    "name": "solc",
    "version": "0.5.16+commit.9c3226ce.Emscripten.clang"
  },
  "schemaVersion": "3.2.3",
  "updatedAt": "2021-09-22T13:32:41.788Z",
  "devdoc": {
    "methods": {}
  },
  "userdoc": {
    "methods": {}
  }
}