{
  "contractName": "BetFactory",
  "abi": [
    {
      "constant": true,
      "inputs": [
        {
          "internalType": "address",
          "name": "",
          "type": "address"
        },
        {
          "internalType": "uint256",
          "name": "",
          "type": "uint256"
        }
      ],
      "name": "deployedBets",
      "outputs": [
        {
          "internalType": "address",
          "name": "",
          "type": "address"
        }
      ],
      "payable": false,
      "stateMutability": "view",
      "type": "function"
    },
    {
      "constant": true,
      "inputs": [],
      "name": "name",
      "outputs": [
        {
          "internalType": "string",
          "name": "",
          "type": "string"
        }
      ],
      "payable": false,
      "stateMutability": "view",
      "type": "function"
    },
    {
      "constant": false,
      "inputs": [
        {
          "internalType": "address payable",
          "name": "player2",
          "type": "address"
        },
        {
          "internalType": "address",
          "name": "referee",
          "type": "address"
        },
        {
          "internalType": "uint256",
          "name": "prize",
          "type": "uint256"
        }
      ],
      "name": "createBet",
      "outputs": [],
      "payable": false,
      "stateMutability": "nonpayable",
      "type": "function"
    },
    {
      "constant": true,
      "inputs": [],
      "name": "myBets",
      "outputs": [
        {
          "internalType": "address[]",
          "name": "",
          "type": "address[]"
        }
      ],
      "payable": false,
      "stateMutability": "view",
      "type": "function"
    },
    {
      "constant": false,
      "inputs": [
        {
          "internalType": "address",
          "name": "player",
          "type": "address"
        }
      ],
      "name": "pushBet",
      "outputs": [],
      "payable": false,
      "stateMutability": "nonpayable",
      "type": "function"
    }
  ],
  "bytecode": "0x60806040526040518060400160405280600a81526020017f426574466163746f7279000000000000000000000000000000000000000000008152506000908051906020019061004f929190610062565b5034801561005c57600080fd5b50610107565b828054600181600116156101000203166002900490600052602060002090601f016020900481019282601f106100a357805160ff19168380011785556100d1565b828001600101855582156100d1579182015b828111156100d05782518255916020019190600101906100b5565b5b5090506100de91906100e2565b5090565b61010491905b808211156101005760008160009055506001016100e8565b5090565b90565b61236d806101166000396000f3fe608060405234801561001057600080fd5b50600436106100575760003560e01c806301f9f5b91461005c57806306fdde03146100ca578063216de3251461014d578063aea39704146101ac578063b51f59de1461023a575b600080fd5b6100c86004803603606081101561007257600080fd5b81019080803573ffffffffffffffffffffffffffffffffffffffff169060200190929190803573ffffffffffffffffffffffffffffffffffffffff1690602001909291908035906020019092919050505061027e565b005b6100d261042f565b6040518080602001828103825283818151815260200191508051906020019080838360005b838110156101125780820151818401526020810190506100f7565b50505050905090810190601f16801561013f5780820380516001836020036101000a031916815260200191505b509250505060405180910390f35b6101556104cd565b6040518080602001828103825283818151815260200191508051906020019060200280838360005b8381101561019857808201518184015260208101905061017d565b505050509050019250505060405180910390f35b6101f8600480360360408110156101c257600080fd5b81019080803573ffffffffffffffffffffffffffffffffffffffff16906020019092919080359060200190929190505050610598565b604051808273ffffffffffffffffffffffffffffffffffffffff1673ffffffffffffffffffffffffffffffffffffffff16815260200191505060405180910390f35b61027c6004803603602081101561025057600080fd5b81019080803573ffffffffffffffffffffffffffffffffffffffff1690602001909291905050506105e3565b005b6000338484843060405161029190610689565b808673ffffffffffffffffffffffffffffffffffffffff1673ffffffffffffffffffffffffffffffffffffffff1681526020018573ffffffffffffffffffffffffffffffffffffffff1673ffffffffffffffffffffffffffffffffffffffff1681526020018473ffffffffffffffffffffffffffffffffffffffff1673ffffffffffffffffffffffffffffffffffffffff1681526020018381526020018273ffffffffffffffffffffffffffffffffffffffff1673ffffffffffffffffffffffffffffffffffffffff16815260200195505050505050604051809103906000f080158015610383573d6000803e3d6000fd5b509050600160003373ffffffffffffffffffffffffffffffffffffffff1673ffffffffffffffffffffffffffffffffffffffff1681526020019081526020016000208190806001815401808255809150509060018203906000526020600020016000909192909190916101000a81548173ffffffffffffffffffffffffffffffffffffffff021916908373ffffffffffffffffffffffffffffffffffffffff1602179055505050505050565b60008054600181600116156101000203166002900480601f0160208091040260200160405190810160405280929190818152602001828054600181600116156101000203166002900480156104c55780601f1061049a576101008083540402835291602001916104c5565b820191906000526020600020905b8154815290600101906020018083116104a857829003601f168201915b505050505081565b6060600160003373ffffffffffffffffffffffffffffffffffffffff1673ffffffffffffffffffffffffffffffffffffffff16815260200190815260200160002080548060200260200160405190810160405280929190818152602001828054801561058e57602002820191906000526020600020905b8160009054906101000a900473ffffffffffffffffffffffffffffffffffffffff1673ffffffffffffffffffffffffffffffffffffffff1681526020019060010190808311610544575b5050505050905090565b600160205281600052604060002081815481106105b157fe5b906000526020600020016000915091509054906101000a900473ffffffffffffffffffffffffffffffffffffffff1681565b600160008273ffffffffffffffffffffffffffffffffffffffff1673ffffffffffffffffffffffffffffffffffffffff1681526020019081526020016000203390806001815401808255809150509060018203906000526020600020016000909192909190916101000a81548173ffffffffffffffffffffffffffffffffffffffff021916908373ffffffffffffffffffffffffffffffffffffffff1602179055505050565b611ca180620006988339019056fe60806040526040518060400160405280600381526020017f4265740000000000000000000000000000000000000000000000000000000000815250600090805190602001906200005192919062000582565b5060405162001ca138038062001ca1833981810160405260a08110156200007757600080fd5b8101908080519060200190929190805190602001909291908051906020019092919080519060200190929190805190602001909291905050508273ffffffffffffffffffffffffffffffffffffffff168573ffffffffffffffffffffffffffffffffffffffff16141580156200011957508273ffffffffffffffffffffffffffffffffffffffff168473ffffffffffffffffffffffffffffffffffffffff1614155b6200018c576040517f08c379a000000000000000000000000000000000000000000000000000000000815260040180806020018281038252600f8152602001807f496e76616c69642072656665726565000000000000000000000000000000000081525060200191505060405180910390fd5b818573ffffffffffffffffffffffffffffffffffffffff16311162000219576040517f08c379a000000000000000000000000000000000000000000000000000000000815260040180806020018281038252601d8152602001807f596f7520646f206e6f74206861766520656e6f7567682066756e64732100000081525060200191505060405180910390fd5b818473ffffffffffffffffffffffffffffffffffffffff1631116200028a576040517f08c379a000000000000000000000000000000000000000000000000000000000815260040180806020018281038252602481526020018062001c7d6024913960400191505060405180910390fd5b6200029b836200047560201b60201c565b8160058190555060038590806001815401808255809150509060018203906000526020600020016000909192909190916101000a81548173ffffffffffffffffffffffffffffffffffffffff021916908373ffffffffffffffffffffffffffffffffffffffff1602179055505060038490806001815401808255809150509060018203906000526020600020016000909192909190916101000a81548173ffffffffffffffffffffffffffffffffffffffff021916908373ffffffffffffffffffffffffffffffffffffffff1602179055505080600660006101000a81548173ffffffffffffffffffffffffffffffffffffffff021916908373ffffffffffffffffffffffffffffffffffffffff160217905550600660009054906101000a900473ffffffffffffffffffffffffffffffffffffffff1673ffffffffffffffffffffffffffffffffffffffff1663b51f59de856040518263ffffffff1660e01b8152600401808273ffffffffffffffffffffffffffffffffffffffff1673ffffffffffffffffffffffffffffffffffffffff168152602001915050600060405180830381600087803b1580156200045157600080fd5b505af115801562000466573d6000803e3d6000fd5b50505050505050505062000631565b6000600160008373ffffffffffffffffffffffffffffffffffffffff1673ffffffffffffffffffffffffffffffffffffffff1681526020019081526020016000209050338160000160006101000a81548173ffffffffffffffffffffffffffffffffffffffff021916908373ffffffffffffffffffffffffffffffffffffffff16021790555060008160000160146101000a81548160ff02191690831515021790555060028290806001815401808255809150509060018203906000526020600020016000909192909190916101000a81548173ffffffffffffffffffffffffffffffffffffffff021916908373ffffffffffffffffffffffffffffffffffffffff160217905550505050565b828054600181600116156101000203166002900490600052602060002090601f016020900481019282601f10620005c557805160ff1916838001178555620005f6565b82800160010185558215620005f6579182015b82811115620005f5578251825591602001919060010190620005d8565b5b50905062000605919062000609565b5090565b6200062e91905b808211156200062a57600081600090555060010162000610565b5090565b90565b61163c80620006416000396000f3fe6080604052600436106100dd5760003560e01c8063b1275f9a1161007f578063e0b3209711610059578063e0b320971461049a578063e3ac5d2614610506578063e97dcb6214610531578063ef7a74641461053b576100dd565b8063b1275f9a146103cd578063c34f6b0d1461041e578063c5a8b47014610449576100dd565b806336ed0996116100bb57806336ed09961461023e57806339bc8f2d1461028f578063680719bb146102f8578063aee636bc14610361576100dd565b806306fdde03146100e2578063141d49ce14610172578063354267b6146101c3575b600080fd5b3480156100ee57600080fd5b506100f76105b6565b6040518080602001828103825283818151815260200191508051906020019080838360005b8381101561013757808201518184015260208101905061011c565b50505050905090810190601f1680156101645780820380516001836020036101000a031916815260200191505b509250505060405180910390f35b34801561017e57600080fd5b506101c16004803603602081101561019557600080fd5b81019080803573ffffffffffffffffffffffffffffffffffffffff169060200190929190505050610654565b005b3480156101cf57600080fd5b506101fc600480360360208110156101e657600080fd5b81019080803590602001909291905050506108c5565b604051808273ffffffffffffffffffffffffffffffffffffffff1673ffffffffffffffffffffffffffffffffffffffff16815260200191505060405180910390f35b34801561024a57600080fd5b5061028d6004803603602081101561026157600080fd5b81019080803573ffffffffffffffffffffffffffffffffffffffff169060200190929190505050610901565b005b34801561029b57600080fd5b506102de600480360360208110156102b257600080fd5b81019080803573ffffffffffffffffffffffffffffffffffffffff169060200190929190505050610d22565b604051808215151515815260200191505060405180910390f35b34801561030457600080fd5b506103476004803603602081101561031b57600080fd5b81019080803573ffffffffffffffffffffffffffffffffffffffff169060200190929190505050610d7b565b604051808215151515815260200191505060405180910390f35b34801561036d57600080fd5b50610376610dd1565b6040518080602001828103825283818151815260200191508051906020019060200280838360005b838110156103b957808201518184015260208101905061039e565b505050509050019250505060405180910390f35b3480156103d957600080fd5b5061041c600480360360208110156103f057600080fd5b81019080803573ffffffffffffffffffffffffffffffffffffffff169060200190929190505050610e5f565b005b34801561042a57600080fd5b50610433610fac565b6040518082815260200191505060405180910390f35b34801561045557600080fd5b506104986004803603602081101561046c57600080fd5b81019080803573ffffffffffffffffffffffffffffffffffffffff169060200190929190505050610fcb565b005b3480156104a657600080fd5b506104af611270565b6040518080602001828103825283818151815260200191508051906020019060200280838360005b838110156104f25780820151818401526020810190506104d7565b505050509050019250505060405180910390f35b34801561051257600080fd5b5061051b6112fe565b6040518082815260200191505060405180910390f35b610539611304565b005b34801561054757600080fd5b506105746004803603602081101561055e57600080fd5b8101908080359060200190929190505050611495565b604051808273ffffffffffffffffffffffffffffffffffffffff1673ffffffffffffffffffffffffffffffffffffffff16815260200191505060405180910390f35b60008054600181600116156101000203166002900480601f01602080910402602001604051908101604052809291908181526020018280546001816001161561010002031660029004801561064c5780601f106106215761010080835404028352916020019161064c565b820191906000526020600020905b81548152906001019060200180831161062f57829003601f168201915b505050505081565b600460003373ffffffffffffffffffffffffffffffffffffffff1673ffffffffffffffffffffffffffffffffffffffff16815260200190815260200160002060009054906101000a900460ff16610713576040517f08c379a00000000000000000000000000000000000000000000000000000000081526004018080602001828103825260208152602001807f596f75206d757374206265206120706c6179657220746f20646f20746869732181525060200191505060405180910390fd5b8073ffffffffffffffffffffffffffffffffffffffff163373ffffffffffffffffffffffffffffffffffffffff1614156107b5576040517f08c379a00000000000000000000000000000000000000000000000000000000081526004018080602001828103825260148152602001807f43616e6e6f7420737567676573742073656c662e00000000000000000000000081525060200191505060405180910390fd5b600073ffffffffffffffffffffffffffffffffffffffff16600160008373ffffffffffffffffffffffffffffffffffffffff1673ffffffffffffffffffffffffffffffffffffffff16815260200190815260200160002060000160009054906101000a900473ffffffffffffffffffffffffffffffffffffffff1673ffffffffffffffffffffffffffffffffffffffff16146108b9576040517f08c379a00000000000000000000000000000000000000000000000000000000081526004018080602001828103825260178152602001807f5265666572656520616c7265616479206578697374732e00000000000000000081525060200191505060405180910390fd5b6108c2816114d1565b50565b600381815481106108d257fe5b906000526020600020016000915054906101000a900473ffffffffffffffffffffffffffffffffffffffff1681565b600460003373ffffffffffffffffffffffffffffffffffffffff1673ffffffffffffffffffffffffffffffffffffffff16815260200190815260200160002060009054906101000a900460ff166109c0576040517f08c379a00000000000000000000000000000000000000000000000000000000081526004018080602001828103825260208152602001807f596f75206d757374206265206120706c6179657220746f20646f20746869732181525060200191505060405180910390fd5b8073ffffffffffffffffffffffffffffffffffffffff163373ffffffffffffffffffffffffffffffffffffffff161415610a62576040517f08c379a00000000000000000000000000000000000000000000000000000000081526004018080602001828103825260148152602001807f43616e6e6f7420636f6e6669726d2073656c662e00000000000000000000000081525060200191505060405180910390fd5b600160008273ffffffffffffffffffffffffffffffffffffffff1673ffffffffffffffffffffffffffffffffffffffff16815260200190815260200160002060000160149054906101000a900460ff1615610b25576040517f08c379a000000000000000000000000000000000000000000000000000000000815260040180806020018281038252601a8152602001807f5265666572656520616c726561647920636f6e6669726d65642e00000000000081525060200191505060405180910390fd5b3373ffffffffffffffffffffffffffffffffffffffff16600160008373ffffffffffffffffffffffffffffffffffffffff1673ffffffffffffffffffffffffffffffffffffffff16815260200190815260200160002060000160009054906101000a900473ffffffffffffffffffffffffffffffffffffffff1673ffffffffffffffffffffffffffffffffffffffff161415610c0c576040517f08c379a00000000000000000000000000000000000000000000000000000000081526004018080602001828103825260298152602001806115df6029913960400191505060405180910390fd5b60018060008373ffffffffffffffffffffffffffffffffffffffff1673ffffffffffffffffffffffffffffffffffffffff16815260200190815260200160002060000160146101000a81548160ff021916908315150217905550600660009054906101000a900473ffffffffffffffffffffffffffffffffffffffff1673ffffffffffffffffffffffffffffffffffffffff1663b51f59de826040518263ffffffff1660e01b8152600401808273ffffffffffffffffffffffffffffffffffffffff1673ffffffffffffffffffffffffffffffffffffffff168152602001915050600060405180830381600087803b158015610d0757600080fd5b505af1158015610d1b573d6000803e3d6000fd5b5050505050565b6000600160008373ffffffffffffffffffffffffffffffffffffffff1673ffffffffffffffffffffffffffffffffffffffff16815260200190815260200160002060000160149054906101000a900460ff169050919050565b6000600460008373ffffffffffffffffffffffffffffffffffffffff1673ffffffffffffffffffffffffffffffffffffffff16815260200190815260200160002060009054906101000a900460ff169050919050565b60606002805480602002602001604051908101604052809291908181526020018280548015610e5557602002820191906000526020600020905b8160009054906101000a900473ffffffffffffffffffffffffffffffffffffffff1673ffffffffffffffffffffffffffffffffffffffff1681526020019060010190808311610e0b575b5050505050905090565b600460003373ffffffffffffffffffffffffffffffffffffffff1673ffffffffffffffffffffffffffffffffffffffff16815260200190815260200160002060009054906101000a900460ff16610f1e576040517f08c379a00000000000000000000000000000000000000000000000000000000081526004018080602001828103825260208152602001807f596f75206d757374206265206120706c6179657220746f20646f20746869732181525060200191505060405180910390fd5b6005548173ffffffffffffffffffffffffffffffffffffffff163111610f4357600080fd5b60038190806001815401808255809150509060018203906000526020600020016000909192909190916101000a81548173ffffffffffffffffffffffffffffffffffffffff021916908373ffffffffffffffffffffffffffffffffffffffff1602179055505050565b60003073ffffffffffffffffffffffffffffffffffffffff1631905090565b600160003373ffffffffffffffffffffffffffffffffffffffff1673ffffffffffffffffffffffffffffffffffffffff16815260200190815260200160002060000160149054906101000a900460ff1661108d576040517f08c379a000000000000000000000000000000000000000000000000000000000815260040180806020018281038252601c8152602001807f4f6e6c7920666f7220636f6e6669726d6564207265666572656573210000000081525060200191505060405180910390fd5b600160008273ffffffffffffffffffffffffffffffffffffffff1673ffffffffffffffffffffffffffffffffffffffff16815260200190815260200160002060000160149054906101000a900460ff1615611150576040517f08c379a00000000000000000000000000000000000000000000000000000000081526004018080602001828103825260118152602001807f596f7520736e65616b7920736e65616b7900000000000000000000000000000081525060200191505060405180910390fd5b600460008273ffffffffffffffffffffffffffffffffffffffff1673ffffffffffffffffffffffffffffffffffffffff16815260200190815260200160002060009054906101000a900460ff1661120f576040517f08c379a00000000000000000000000000000000000000000000000000000000081526004018080602001828103825260168152602001807f506c6179657220686173206e6f7420656e74657265640000000000000000000081525060200191505060405180910390fd5b8073ffffffffffffffffffffffffffffffffffffffff166108fc3073ffffffffffffffffffffffffffffffffffffffff16319081150290604051600060405180830381858888f1935050505015801561126c573d6000803e3d6000fd5b5050565b606060038054806020026020016040519081016040528092919081815260200182805480156112f457602002820191906000526020600020905b8160009054906101000a900473ffffffffffffffffffffffffffffffffffffffff1673ffffffffffffffffffffffffffffffffffffffff16815260200190600101908083116112aa575b5050505050905090565b60055481565b600554341461137b576040517f08c379a000000000000000000000000000000000000000000000000000000000815260040180806020018281038252601d8152602001807f42657474696e6720616d6f756e74206d75737420626520657175616c2e00000081525060200191505060405180910390fd5b600460003373ffffffffffffffffffffffffffffffffffffffff1673ffffffffffffffffffffffffffffffffffffffff16815260200190815260200160002060009054906101000a900460ff161561143b576040517f08c379a00000000000000000000000000000000000000000000000000000000081526004018080602001828103825260188152602001807f596f75206861766520616c726561647920656e7465726564000000000000000081525060200191505060405180910390fd5b6001600460003373ffffffffffffffffffffffffffffffffffffffff1673ffffffffffffffffffffffffffffffffffffffff16815260200190815260200160002060006101000a81548160ff021916908315150217905550565b600281815481106114a257fe5b906000526020600020016000915054906101000a900473ffffffffffffffffffffffffffffffffffffffff1681565b6000600160008373ffffffffffffffffffffffffffffffffffffffff1673ffffffffffffffffffffffffffffffffffffffff1681526020019081526020016000209050338160000160006101000a81548173ffffffffffffffffffffffffffffffffffffffff021916908373ffffffffffffffffffffffffffffffffffffffff16021790555060008160000160146101000a81548160ff02191690831515021790555060028290806001815401808255809150509060018203906000526020600020016000909192909190916101000a81548173ffffffffffffffffffffffffffffffffffffffff021916908373ffffffffffffffffffffffffffffffffffffffff16021790555050505056fe43616e6e6f7420636f6e6669726d2072656665726565207375676765737465642062792073656c662ea265627a7a723158207551acc236bff77aa7b6a8ce4d0785ab067ad0a4e27c0e798b70ec0016c7c26e64736f6c634300051000324f70706f6e656e7420646f6573206e6f74206861766520656e6f7567682066756e647321a265627a7a72315820bc46a8e9814d1e14a8fd233d341de026062f25e5a765533c1636c7992c8410a064736f6c63430005100032",
  "source": "pragma solidity ^0.5.0;\r\n\r\ncontract BetFactory {\r\n    string public name = \"BetFactory\";\r\n    mapping (address => address[]) public deployedBets;\r\n    \r\n    function createBet(address payable player2, address referee, uint256 prize) public {\r\n        Bet newBet = new Bet(msg.sender, player2, referee, prize, address(this));\r\n        deployedBets[msg.sender].push(address(newBet));\r\n    }\r\n    \r\n    function myBets() public view returns (address[] memory) {\r\n        return deployedBets[msg.sender];\r\n    }\r\n    \r\n    function pushBet(address player) public {\r\n        deployedBets[player].push(msg.sender);\r\n    }\r\n}\r\n\r\ncontract Bet {\r\n    string public name = \"Bet\";\r\n    \r\n    struct Referee {\r\n        address suggestedBy;\r\n        bool confirmed;\r\n    }\r\n    \r\n    mapping (address => Referee) referees;\r\n    address[] public allReferees;\r\n    address payable[] public invited;\r\n    mapping (address => bool) hasEntered;\r\n    uint256 public prize;\r\n    BetFactory betfactory;\r\n    \r\n    function newReff(address referee) private {\r\n        Referee storage newReferee = referees[referee];\r\n        newReferee.suggestedBy = msg.sender;\r\n        newReferee.confirmed = false;\r\n        allReferees.push(referee);\r\n    }\r\n\r\n    constructor(address payable player1, address payable player2, address _referee, uint256 _prize, address betfactoryaddr) payable public {\r\n        require(player1 != _referee && player2 != _referee, \"Invalid referee\");\r\n        require(player1.balance > _prize, \"You do not have enough funds!\");\r\n        require(player2.balance > _prize, \"Opponent does not have enough funds!\");\r\n        newReff(_referee);\r\n        prize = _prize;\r\n        invited.push(player1);\r\n        invited.push(player2);\r\n        betfactory = BetFactory(betfactoryaddr);\r\n        betfactory.pushBet(player2);\r\n    }\r\n\r\n    function enter() public payable {\r\n        require(msg.value == prize, \"Betting amount must be equal.\");\r\n        require(!hasEntered[msg.sender], \"You have already entered\");\r\n        hasEntered[msg.sender] = true;\r\n    }\r\n    \r\n    function addPlayer(address payable newPlayer) public onlyPlayer {\r\n        require(newPlayer.balance > prize);\r\n        invited.push(newPlayer);\r\n    }\r\n\r\n    modifier onlyReferee() {\r\n        require(referees[msg.sender].confirmed, \"Only for confirmed referees!\");\r\n        _;\r\n    }\r\n    \r\n    modifier onlyPlayer() {\r\n        require(hasEntered[msg.sender], \"You must be a player to do this!\");\r\n        _;\r\n    }\r\n\r\n    function pickWinner(address payable player) public onlyReferee {\r\n        require(!referees[player].confirmed, \"You sneaky sneaky\");\r\n        require(hasEntered[player], \"Player has not entered\");\r\n        player.transfer(address(this).balance);\r\n    }\r\n    \r\n    function suggestReferee(address _referee) public onlyPlayer {\r\n        require(msg.sender != _referee, \"Cannot suggest self.\");\r\n        require(referees[_referee].suggestedBy == address(0), \"Referee already exists.\");\r\n        newReff(_referee);\r\n    }\r\n    \r\n    function confirmReferee(address _referee) public onlyPlayer {\r\n        require(msg.sender != _referee, \"Cannot confirm self.\");\r\n        require(!referees[_referee].confirmed, \"Referee already confirmed.\");\r\n        require(referees[_referee].suggestedBy != msg.sender, \"Cannot confirm referee suggested by self.\");\r\n        referees[_referee].confirmed = true;\r\n        betfactory.pushBet(_referee);\r\n    }\r\n    \r\n    function getPrize() public view returns (uint256) {\r\n        return address(this).balance;\r\n    }\r\n    \r\n    function getInvited() public view returns (address payable[] memory) {\r\n        return invited;\r\n    }\r\n    \r\n    function getReferees() public view returns (address[] memory) {\r\n        return allReferees;\r\n    }\r\n    \r\n    function isRefereeConfirmed(address _referee) public view returns (bool) {\r\n        return referees[_referee].confirmed;\r\n    }\r\n    \r\n    function hasPlayerEntered(address player) public view returns (bool) {\r\n        return hasEntered[player];\r\n    }\r\n}",
  "sourcePath": "C:/Users/klemen-ASUS/Desktop/sandbox/Solidity/my/friends-bet/src/contracts/Bet.sol",
  "compiler": {
    "name": "solc",
    "version": "0.5.16+commit.9c3226ce.Emscripten.clang"
  },
  "schemaVersion": "3.2.3",
  "updatedAt": "2021-09-22T10:22:19.398Z",
  "networkType": "ethereum",
  "devdoc": {
    "methods": {}
  },
  "userdoc": {
    "methods": {}
  }
}