{
  "contractName": "BetFactory",
  "abi": [
    {
      "constant": true,
      "inputs": [
        {
          "internalType": "address",
          "name": "",
          "type": "address"
        },
        {
          "internalType": "uint256",
          "name": "",
          "type": "uint256"
        }
      ],
      "name": "deployedBets",
      "outputs": [
        {
          "internalType": "address",
          "name": "",
          "type": "address"
        }
      ],
      "payable": false,
      "stateMutability": "view",
      "type": "function"
    },
    {
      "constant": true,
      "inputs": [],
      "name": "name",
      "outputs": [
        {
          "internalType": "string",
          "name": "",
          "type": "string"
        }
      ],
      "payable": false,
      "stateMutability": "view",
      "type": "function"
    },
    {
      "constant": false,
      "inputs": [
        {
          "internalType": "address payable",
          "name": "player2",
          "type": "address"
        },
        {
          "internalType": "address",
          "name": "referee",
          "type": "address"
        },
        {
          "internalType": "uint256",
          "name": "prize",
          "type": "uint256"
        }
      ],
      "name": "createBet",
      "outputs": [],
      "payable": false,
      "stateMutability": "nonpayable",
      "type": "function"
    },
    {
      "constant": true,
      "inputs": [],
      "name": "myBets",
      "outputs": [
        {
          "internalType": "address[]",
          "name": "",
          "type": "address[]"
        }
      ],
      "payable": false,
      "stateMutability": "view",
      "type": "function"
    }
  ],
  "bytecode": "0x60806040526040518060400160405280600a81526020017f426574466163746f7279000000000000000000000000000000000000000000008152506000908051906020019061004f929190610062565b5034801561005c57600080fd5b50610107565b828054600181600116156101000203166002900490600052602060002090601f016020900481019282601f106100a357805160ff19168380011785556100d1565b828001600101855582156100d1579182015b828111156100d05782518255916020019190600101906100b5565b5b5090506100de91906100e2565b5090565b61010491905b808211156101005760008160009055506001016100e8565b5090565b90565b612083806101166000396000f3fe608060405234801561001057600080fd5b506004361061004c5760003560e01c806301f9f5b91461005157806306fdde03146100bf578063216de32514610142578063aea39704146101a1575b600080fd5b6100bd6004803603606081101561006757600080fd5b81019080803573ffffffffffffffffffffffffffffffffffffffff169060200190929190803573ffffffffffffffffffffffffffffffffffffffff1690602001909291908035906020019092919050505061022f565b005b6100c76103ac565b6040518080602001828103825283818151815260200191508051906020019080838360005b838110156101075780820151818401526020810190506100ec565b50505050905090810190601f1680156101345780820380516001836020036101000a031916815260200191505b509250505060405180910390f35b61014a61044a565b6040518080602001828103825283818151815260200191508051906020019060200280838360005b8381101561018d578082015181840152602081019050610172565b505050509050019250505060405180910390f35b6101ed600480360360408110156101b757600080fd5b81019080803573ffffffffffffffffffffffffffffffffffffffff16906020019092919080359060200190929190505050610515565b604051808273ffffffffffffffffffffffffffffffffffffffff1673ffffffffffffffffffffffffffffffffffffffff16815260200191505060405180910390f35b60003384848460405161024190610560565b808573ffffffffffffffffffffffffffffffffffffffff1673ffffffffffffffffffffffffffffffffffffffff1681526020018473ffffffffffffffffffffffffffffffffffffffff1673ffffffffffffffffffffffffffffffffffffffff1681526020018373ffffffffffffffffffffffffffffffffffffffff1673ffffffffffffffffffffffffffffffffffffffff168152602001828152602001945050505050604051809103906000f080158015610300573d6000803e3d6000fd5b509050600160003373ffffffffffffffffffffffffffffffffffffffff1673ffffffffffffffffffffffffffffffffffffffff1681526020019081526020016000208190806001815401808255809150509060018203906000526020600020016000909192909190916101000a81548173ffffffffffffffffffffffffffffffffffffffff021916908373ffffffffffffffffffffffffffffffffffffffff1602179055505050505050565b60008054600181600116156101000203166002900480601f0160208091040260200160405190810160405280929190818152602001828054600181600116156101000203166002900480156104425780601f1061041757610100808354040283529160200191610442565b820191906000526020600020905b81548152906001019060200180831161042557829003601f168201915b505050505081565b6060600160003373ffffffffffffffffffffffffffffffffffffffff1673ffffffffffffffffffffffffffffffffffffffff16815260200190815260200160002080548060200260200160405190810160405280929190818152602001828054801561050b57602002820191906000526020600020905b8160009054906101000a900473ffffffffffffffffffffffffffffffffffffffff1673ffffffffffffffffffffffffffffffffffffffff16815260200190600101908083116104c1575b5050505050905090565b6001602052816000526040600020818154811061052e57fe5b906000526020600020016000915091509054906101000a900473ffffffffffffffffffffffffffffffffffffffff1681565b611ae18061056e8339019056fe60806040526040518060400160405280600381526020017f426574000000000000000000000000000000000000000000000000000000000081525060009080519060200190620000519291906200047b565b5060405162001ae138038062001ae1833981810160405260808110156200007757600080fd5b81019080805190602001909291908051906020019092919080519060200190929190805190602001909291905050508173ffffffffffffffffffffffffffffffffffffffff168473ffffffffffffffffffffffffffffffffffffffff16141580156200010f57508173ffffffffffffffffffffffffffffffffffffffff168373ffffffffffffffffffffffffffffffffffffffff1614155b62000182576040517f08c379a000000000000000000000000000000000000000000000000000000000815260040180806020018281038252600f8152602001807f496e76616c69642072656665726565000000000000000000000000000000000081525060200191505060405180910390fd5b808473ffffffffffffffffffffffffffffffffffffffff1631116200020f576040517f08c379a000000000000000000000000000000000000000000000000000000000815260040180806020018281038252601d8152602001807f596f7520646f206e6f74206861766520656e6f7567682066756e64732100000081525060200191505060405180910390fd5b808373ffffffffffffffffffffffffffffffffffffffff16311162000280576040517f08c379a000000000000000000000000000000000000000000000000000000000815260040180806020018281038252602481526020018062001abd6024913960400191505060405180910390fd5b62000291826200036e60201b60201c565b8060058190555060038490806001815401808255809150509060018203906000526020600020016000909192909190916101000a81548173ffffffffffffffffffffffffffffffffffffffff021916908373ffffffffffffffffffffffffffffffffffffffff1602179055505060038390806001815401808255809150509060018203906000526020600020016000909192909190916101000a81548173ffffffffffffffffffffffffffffffffffffffff021916908373ffffffffffffffffffffffffffffffffffffffff16021790555050505050506200052a565b6000600160008373ffffffffffffffffffffffffffffffffffffffff1673ffffffffffffffffffffffffffffffffffffffff1681526020019081526020016000209050338160000160006101000a81548173ffffffffffffffffffffffffffffffffffffffff021916908373ffffffffffffffffffffffffffffffffffffffff16021790555060008160000160146101000a81548160ff02191690831515021790555060028290806001815401808255809150509060018203906000526020600020016000909192909190916101000a81548173ffffffffffffffffffffffffffffffffffffffff021916908373ffffffffffffffffffffffffffffffffffffffff160217905550505050565b828054600181600116156101000203166002900490600052602060002090601f016020900481019282601f10620004be57805160ff1916838001178555620004ef565b82800160010185558215620004ef579182015b82811115620004ee578251825591602001919060010190620004d1565b5b509050620004fe919062000502565b5090565b6200052791905b808211156200052357600081600090555060010162000509565b5090565b90565b611583806200053a6000396000f3fe6080604052600436106100dd5760003560e01c8063b1275f9a1161007f578063e0b3209711610059578063e0b320971461049a578063e3ac5d2614610506578063e97dcb6214610531578063ef7a74641461053b576100dd565b8063b1275f9a146103cd578063c34f6b0d1461041e578063c5a8b47014610449576100dd565b806336ed0996116100bb57806336ed09961461023e57806339bc8f2d1461028f578063680719bb146102f8578063aee636bc14610361576100dd565b806306fdde03146100e2578063141d49ce14610172578063354267b6146101c3575b600080fd5b3480156100ee57600080fd5b506100f76105b6565b6040518080602001828103825283818151815260200191508051906020019080838360005b8381101561013757808201518184015260208101905061011c565b50505050905090810190601f1680156101645780820380516001836020036101000a031916815260200191505b509250505060405180910390f35b34801561017e57600080fd5b506101c16004803603602081101561019557600080fd5b81019080803573ffffffffffffffffffffffffffffffffffffffff169060200190929190505050610654565b005b3480156101cf57600080fd5b506101fc600480360360208110156101e657600080fd5b81019080803590602001909291905050506108c5565b604051808273ffffffffffffffffffffffffffffffffffffffff1673ffffffffffffffffffffffffffffffffffffffff16815260200191505060405180910390f35b34801561024a57600080fd5b5061028d6004803603602081101561026157600080fd5b81019080803573ffffffffffffffffffffffffffffffffffffffff169060200190929190505050610901565b005b34801561029b57600080fd5b506102de600480360360208110156102b257600080fd5b81019080803573ffffffffffffffffffffffffffffffffffffffff169060200190929190505050610c69565b604051808215151515815260200191505060405180910390f35b34801561030457600080fd5b506103476004803603602081101561031b57600080fd5b81019080803573ffffffffffffffffffffffffffffffffffffffff169060200190929190505050610cc2565b604051808215151515815260200191505060405180910390f35b34801561036d57600080fd5b50610376610d18565b6040518080602001828103825283818151815260200191508051906020019060200280838360005b838110156103b957808201518184015260208101905061039e565b505050509050019250505060405180910390f35b3480156103d957600080fd5b5061041c600480360360208110156103f057600080fd5b81019080803573ffffffffffffffffffffffffffffffffffffffff169060200190929190505050610da6565b005b34801561042a57600080fd5b50610433610ef3565b6040518082815260200191505060405180910390f35b34801561045557600080fd5b506104986004803603602081101561046c57600080fd5b81019080803573ffffffffffffffffffffffffffffffffffffffff169060200190929190505050610f12565b005b3480156104a657600080fd5b506104af6111b7565b6040518080602001828103825283818151815260200191508051906020019060200280838360005b838110156104f25780820151818401526020810190506104d7565b505050509050019250505060405180910390f35b34801561051257600080fd5b5061051b611245565b6040518082815260200191505060405180910390f35b61053961124b565b005b34801561054757600080fd5b506105746004803603602081101561055e57600080fd5b81019080803590602001909291905050506113dc565b604051808273ffffffffffffffffffffffffffffffffffffffff1673ffffffffffffffffffffffffffffffffffffffff16815260200191505060405180910390f35b60008054600181600116156101000203166002900480601f01602080910402602001604051908101604052809291908181526020018280546001816001161561010002031660029004801561064c5780601f106106215761010080835404028352916020019161064c565b820191906000526020600020905b81548152906001019060200180831161062f57829003601f168201915b505050505081565b600460003373ffffffffffffffffffffffffffffffffffffffff1673ffffffffffffffffffffffffffffffffffffffff16815260200190815260200160002060009054906101000a900460ff16610713576040517f08c379a00000000000000000000000000000000000000000000000000000000081526004018080602001828103825260208152602001807f596f75206d757374206265206120706c6179657220746f20646f20746869732181525060200191505060405180910390fd5b8073ffffffffffffffffffffffffffffffffffffffff163373ffffffffffffffffffffffffffffffffffffffff1614156107b5576040517f08c379a00000000000000000000000000000000000000000000000000000000081526004018080602001828103825260148152602001807f43616e6e6f7420737567676573742073656c662e00000000000000000000000081525060200191505060405180910390fd5b600073ffffffffffffffffffffffffffffffffffffffff16600160008373ffffffffffffffffffffffffffffffffffffffff1673ffffffffffffffffffffffffffffffffffffffff16815260200190815260200160002060000160009054906101000a900473ffffffffffffffffffffffffffffffffffffffff1673ffffffffffffffffffffffffffffffffffffffff16146108b9576040517f08c379a00000000000000000000000000000000000000000000000000000000081526004018080602001828103825260178152602001807f5265666572656520616c7265616479206578697374732e00000000000000000081525060200191505060405180910390fd5b6108c281611418565b50565b600381815481106108d257fe5b906000526020600020016000915054906101000a900473ffffffffffffffffffffffffffffffffffffffff1681565b600460003373ffffffffffffffffffffffffffffffffffffffff1673ffffffffffffffffffffffffffffffffffffffff16815260200190815260200160002060009054906101000a900460ff166109c0576040517f08c379a00000000000000000000000000000000000000000000000000000000081526004018080602001828103825260208152602001807f596f75206d757374206265206120706c6179657220746f20646f20746869732181525060200191505060405180910390fd5b8073ffffffffffffffffffffffffffffffffffffffff163373ffffffffffffffffffffffffffffffffffffffff161415610a62576040517f08c379a00000000000000000000000000000000000000000000000000000000081526004018080602001828103825260148152602001807f43616e6e6f7420636f6e6669726d2073656c662e00000000000000000000000081525060200191505060405180910390fd5b600160008273ffffffffffffffffffffffffffffffffffffffff1673ffffffffffffffffffffffffffffffffffffffff16815260200190815260200160002060000160149054906101000a900460ff1615610b25576040517f08c379a000000000000000000000000000000000000000000000000000000000815260040180806020018281038252601a8152602001807f5265666572656520616c726561647920636f6e6669726d65642e00000000000081525060200191505060405180910390fd5b3373ffffffffffffffffffffffffffffffffffffffff16600160008373ffffffffffffffffffffffffffffffffffffffff1673ffffffffffffffffffffffffffffffffffffffff16815260200190815260200160002060000160009054906101000a900473ffffffffffffffffffffffffffffffffffffffff1673ffffffffffffffffffffffffffffffffffffffff161415610c0c576040517f08c379a00000000000000000000000000000000000000000000000000000000081526004018080602001828103825260298152602001806115266029913960400191505060405180910390fd5b60018060008373ffffffffffffffffffffffffffffffffffffffff1673ffffffffffffffffffffffffffffffffffffffff16815260200190815260200160002060000160146101000a81548160ff02191690831515021790555050565b6000600160008373ffffffffffffffffffffffffffffffffffffffff1673ffffffffffffffffffffffffffffffffffffffff16815260200190815260200160002060000160149054906101000a900460ff169050919050565b6000600460008373ffffffffffffffffffffffffffffffffffffffff1673ffffffffffffffffffffffffffffffffffffffff16815260200190815260200160002060009054906101000a900460ff169050919050565b60606002805480602002602001604051908101604052809291908181526020018280548015610d9c57602002820191906000526020600020905b8160009054906101000a900473ffffffffffffffffffffffffffffffffffffffff1673ffffffffffffffffffffffffffffffffffffffff1681526020019060010190808311610d52575b5050505050905090565b600460003373ffffffffffffffffffffffffffffffffffffffff1673ffffffffffffffffffffffffffffffffffffffff16815260200190815260200160002060009054906101000a900460ff16610e65576040517f08c379a00000000000000000000000000000000000000000000000000000000081526004018080602001828103825260208152602001807f596f75206d757374206265206120706c6179657220746f20646f20746869732181525060200191505060405180910390fd5b6005548173ffffffffffffffffffffffffffffffffffffffff163111610e8a57600080fd5b60038190806001815401808255809150509060018203906000526020600020016000909192909190916101000a81548173ffffffffffffffffffffffffffffffffffffffff021916908373ffffffffffffffffffffffffffffffffffffffff1602179055505050565b60003073ffffffffffffffffffffffffffffffffffffffff1631905090565b600160003373ffffffffffffffffffffffffffffffffffffffff1673ffffffffffffffffffffffffffffffffffffffff16815260200190815260200160002060000160149054906101000a900460ff16610fd4576040517f08c379a000000000000000000000000000000000000000000000000000000000815260040180806020018281038252601c8152602001807f4f6e6c7920666f7220636f6e6669726d6564207265666572656573210000000081525060200191505060405180910390fd5b600160008273ffffffffffffffffffffffffffffffffffffffff1673ffffffffffffffffffffffffffffffffffffffff16815260200190815260200160002060000160149054906101000a900460ff1615611097576040517f08c379a00000000000000000000000000000000000000000000000000000000081526004018080602001828103825260118152602001807f596f7520736e65616b7920736e65616b7900000000000000000000000000000081525060200191505060405180910390fd5b600460008273ffffffffffffffffffffffffffffffffffffffff1673ffffffffffffffffffffffffffffffffffffffff16815260200190815260200160002060009054906101000a900460ff16611156576040517f08c379a00000000000000000000000000000000000000000000000000000000081526004018080602001828103825260168152602001807f506c6179657220686173206e6f7420656e74657265640000000000000000000081525060200191505060405180910390fd5b8073ffffffffffffffffffffffffffffffffffffffff166108fc3073ffffffffffffffffffffffffffffffffffffffff16319081150290604051600060405180830381858888f193505050501580156111b3573d6000803e3d6000fd5b5050565b6060600380548060200260200160405190810160405280929190818152602001828054801561123b57602002820191906000526020600020905b8160009054906101000a900473ffffffffffffffffffffffffffffffffffffffff1673ffffffffffffffffffffffffffffffffffffffff16815260200190600101908083116111f1575b5050505050905090565b60055481565b60055434146112c2576040517f08c379a000000000000000000000000000000000000000000000000000000000815260040180806020018281038252601d8152602001807f42657474696e6720616d6f756e74206d75737420626520657175616c2e00000081525060200191505060405180910390fd5b600460003373ffffffffffffffffffffffffffffffffffffffff1673ffffffffffffffffffffffffffffffffffffffff16815260200190815260200160002060009054906101000a900460ff1615611382576040517f08c379a00000000000000000000000000000000000000000000000000000000081526004018080602001828103825260188152602001807f596f75206861766520616c726561647920656e7465726564000000000000000081525060200191505060405180910390fd5b6001600460003373ffffffffffffffffffffffffffffffffffffffff1673ffffffffffffffffffffffffffffffffffffffff16815260200190815260200160002060006101000a81548160ff021916908315150217905550565b600281815481106113e957fe5b906000526020600020016000915054906101000a900473ffffffffffffffffffffffffffffffffffffffff1681565b6000600160008373ffffffffffffffffffffffffffffffffffffffff1673ffffffffffffffffffffffffffffffffffffffff1681526020019081526020016000209050338160000160006101000a81548173ffffffffffffffffffffffffffffffffffffffff021916908373ffffffffffffffffffffffffffffffffffffffff16021790555060008160000160146101000a81548160ff02191690831515021790555060028290806001815401808255809150509060018203906000526020600020016000909192909190916101000a81548173ffffffffffffffffffffffffffffffffffffffff021916908373ffffffffffffffffffffffffffffffffffffffff16021790555050505056fe43616e6e6f7420636f6e6669726d2072656665726565207375676765737465642062792073656c662ea265627a7a72315820fc579ddfb42cb20d3109a0cb47c626648e0955a5ab5b284c36272e5a8aa172a264736f6c634300051000324f70706f6e656e7420646f6573206e6f74206861766520656e6f7567682066756e647321a265627a7a72315820a7a3bd30a99bfac4f428d82d4cf5a6952d16acf92660ee01f38f583879f927fa64736f6c63430005100032",
  "source": "pragma solidity ^0.5.0;\r\n\r\ncontract BetFactory {\r\n    string public name = \"BetFactory\";\r\n    mapping (address => address[]) public deployedBets;\r\n    \r\n    function createBet(address payable player2, address referee, uint256 prize) public {\r\n        Bet newBet = new Bet(msg.sender, player2, referee, prize);\r\n        deployedBets[msg.sender].push(address(newBet));\r\n    }\r\n    \r\n    function myBets() public view returns (address[] memory) {\r\n        return deployedBets[msg.sender];\r\n    }\r\n}\r\n\r\ncontract Bet {\r\n    string public name = \"Bet\";\r\n    \r\n    struct Referee {\r\n        address suggestedBy;\r\n        bool confirmed;\r\n    }\r\n    \r\n    mapping (address => Referee) referees;\r\n    address[] public allReferees;\r\n    address payable[] public invited;\r\n    mapping (address => bool) hasEntered;\r\n    uint256 public prize;\r\n    \r\n    function newReff(address referee) private {\r\n        Referee storage newReferee = referees[referee];\r\n        newReferee.suggestedBy = msg.sender;\r\n        newReferee.confirmed = false;\r\n        allReferees.push(referee);\r\n    }\r\n\r\n    constructor(address payable player1, address payable player2, address _referee, uint256 _prize) payable public {\r\n        require(player1 != _referee && player2 != _referee, \"Invalid referee\");\r\n        require(player1.balance > _prize, \"You do not have enough funds!\");\r\n        require(player2.balance > _prize, \"Opponent does not have enough funds!\");\r\n        newReff(_referee);\r\n        prize = _prize;\r\n        invited.push(player1);\r\n        invited.push(player2);\r\n    }\r\n\r\n    function enter() public payable {\r\n        require(msg.value == prize, \"Betting amount must be equal.\");\r\n        require(!hasEntered[msg.sender], \"You have already entered\");\r\n        hasEntered[msg.sender] = true;\r\n    }\r\n    \r\n    function addPlayer(address payable newPlayer) public onlyPlayer {\r\n        require(newPlayer.balance > prize);\r\n        invited.push(newPlayer);\r\n    }\r\n\r\n    modifier onlyReferee() {\r\n        require(referees[msg.sender].confirmed, \"Only for confirmed referees!\");\r\n        _;\r\n    }\r\n    \r\n    modifier onlyPlayer() {\r\n        require(hasEntered[msg.sender], \"You must be a player to do this!\");\r\n        _;\r\n    }\r\n\r\n    function pickWinner(address payable player) public onlyReferee {\r\n        require(!referees[player].confirmed, \"You sneaky sneaky\");\r\n        require(hasEntered[player], \"Player has not entered\");\r\n        player.transfer(address(this).balance);\r\n    }\r\n    \r\n    function suggestReferee(address _referee) public onlyPlayer {\r\n        require(msg.sender != _referee, \"Cannot suggest self.\");\r\n        require(referees[_referee].suggestedBy == address(0), \"Referee already exists.\");\r\n        newReff(_referee);\r\n    }\r\n    \r\n    function confirmReferee(address _referee) public onlyPlayer {\r\n        require(msg.sender != _referee, \"Cannot confirm self.\");\r\n        require(!referees[_referee].confirmed, \"Referee already confirmed.\");\r\n        require(referees[_referee].suggestedBy != msg.sender, \"Cannot confirm referee suggested by self.\");\r\n        referees[_referee].confirmed = true;\r\n    }\r\n    \r\n    function getPrize() public view returns (uint256) {\r\n        return address(this).balance;\r\n    }\r\n    \r\n    function getInvited() public view returns (address payable[] memory) {\r\n        return invited;\r\n    }\r\n    \r\n    function getReferees() public view returns (address[] memory) {\r\n        return allReferees;\r\n    }\r\n    \r\n    function isRefereeConfirmed(address _referee) public view returns (bool) {\r\n        return referees[_referee].confirmed;\r\n    }\r\n    \r\n    function hasPlayerEntered(address player) public view returns (bool) {\r\n        return hasEntered[player];\r\n    }\r\n}",
  "sourcePath": "/mnt/c/Users/klemen-ASUS/Desktop/sandbox/Solidity/my/friends-bet/src/contracts/Bet.sol",
  "compiler": {
    "name": "solc",
    "version": "0.5.16+commit.9c3226ce.Emscripten.clang"
  },
  "schemaVersion": "3.2.3",
  "updatedAt": "2021-09-14T13:25:38.762Z",
  "networkType": "ethereum",
  "devdoc": {
    "methods": {}
  },
  "userdoc": {
    "methods": {}
  }
}